:020000040800F2
:10000000D8050020050100085F1E0008971B0008A6
:100010005D1E000899070008812300080000000009
:10002000000000000000000000000000891E000821
:100030009B07000800000000611E00088B1E0008DE
:100040001F0100081F0100081F0100081F01000810
:100050001F0100081F0100081F0100081F01000800
:100060001F0100081F0100081F0100081F010008F0
:100070001F0100081F0100081F0100081F010008E0
:100080001F0100081F0100081F0100081F010008D0
:100090001F0100081F0100081F0100081F010008C0
:1000A0001F0100081F0100081F0100081F010008B0
:1000B0001F0100081F0100081F0100081F010008A0
:1000C0001F0100081F0100081F0100081F01000890
:1000D0001F0100081F010008752300081F01000808
:1000E0001F0100081F0100081F010008DFF810D0E1
:1000F00000F040FB00480047A1230008AFF3008058
:10010000D80500200648804706480047FEE7FEE77E
:10011000FEE7FEE7FEE7FEE7FEE7FEE7FEE7FEE7B7
:10012000DD1E0008ED000008202A04DB203A21FA39
:1001300002F00021704721FA02F3D040C2F1200200
:100140009140084319467047D2B201E000F8012BF4
:10015000491EFBD270470022F6E710B513460A4647
:1001600004461946FFF7F0FF204610BDF0B480EAC0
:100170000102D40F4200B2EB410F02D20246084600
:1001800011464A0042D0C30DDDB2C1F3C752AD1AC9
:10019000202D35DAC1F3160141F4000204B15242B8
:1001A000C5F1200602FA06F12A411044B3EBD05FF4
:1001B00023D0C4B1012DA0EBC35009DCF0BC4FF03B
:1001C000004202EAC352DBB200F5000000F046BA7A
:1001D000400000F1807000EBC350A0F1807040EA55
:1001E000D170490009E0490841EAC071A0EBC35051
:1001F00000F50000400800EBC350F0BC00F025BA49
:100200006142012202EB4101001BF6E7F0BC70479E
:1002100081F00041AAE780F00040A7E780EA0102F0
:1002200010B502F00043400022D04A001FD0010E5A
:1002300001EB1261C0F35600C2F3560240F4000015
:1002400042F40002A0FB022000047F39140400D015
:10025000401C50EA124001D44000491EC2B20C06B4
:1002600004EBD010401C4008802A02D003E000209C
:1002700010BD20F00100002900DA0020184310BD55
:1002800030B480EA010202F0004530F0004221F073
:10029000004013D090B1C30DD40DC2F31601C0F3CA
:1002A0001600E41A41F4000140F400027D3491424A
:1002B00001D3641C00E04900002C02DA30BC0020AD
:1002C00070474FF400000023914201D3891A034381
:1002D00040084FEA4101F7D151B1914202D14FF0AC
:1002E000004105E002D24FF0010101E06FF0010191
:1002F00003EBC450284430BC00F0A7B9420005D03D
:10030000C0F3C7525242914201DC0020704700EB1B
:10031000C15070472DE9FE4F804681EA0300C00FAF
:100320000C46009021F0004123F00045B8EB02009C
:10033000A94105D24046214690461C460B4602463E
:1003400023F00040104347D0270DC7F30A00C3F342
:100350000A510290401A019040286BDAC3F313004F
:1003600040F4801B0098924620B10023D2EB030A90
:1003700063EB0B0B01985946C0F14002504600F068
:1003800043F906460D4650465946019A00F04BF98E
:1003900010EB08006141002487EA115284EAE773F8
:1003A0001A4340D0009A62B3019A012A4FEA0752D9
:1003B00015DC001B61EB02014FF0004202EA07521C
:1003C000CDE90042001C41F5801132462B4600F079
:1003D00082F903B0BDE8F08F40462146F9E7001BE3
:1003E00061EB0201001C41F5801300185B412018ED
:1003F000A2F5001747EB030140EAD570B6196D412D
:1004000011E06D084FEA360645EAC0754FEA07521B
:10041000001B61EB0201001C41F5801149084FEA05
:1004200030000019514132462B4603B0BDE8F04F71
:1004300000F042B90098012240000023D0EB0202F4
:1004400063EBE073009821464FEAE074B8EB0000DC
:1004500061EB0401E9E783F000435BE781F00041D1
:1004600058E72DE9FE4F81EA030404F0004421F02F
:10047000004100944FF0000B23F0004350EA0104C8
:100480005ED052EA03045BD0C3F30A54C1F30A55A9
:100490002C44A4F2F3340194A0FB0254C1F31301E1
:1004A00041F48011C3F3130343F4801301FB0244AE
:1004B00000FB034E840A970A44EA815447EA8357B3
:1004C000A4FB076802958D0A05FB07854FEA932C6C
:1004D00004FB0C542705029D4FEA065847EA1637DD
:1004E000B5EB08056EEB070C870E920E47EA8117F5
:1004F00042EA8312A7FB0201B6EB0B0164EB000496
:100500002B0D43EA0C335E1844EB1C50DA4651467F
:10051000E7FB0201C5F313044FEA0B3343EA14531C
:100520004FEA0432019C43EA0603A4F10C0402944E
:10053000009CCDE900B400F0CEF803B0BDE8F08F28
:1005400000200146F9E7C10F80EAE0700844CA07BD
:100550009623002100F082B896230022114600F075
:100560007DB800F0004220F00040C10DC0F316003D
:1005700040F400007F2901DA00207047962903DC4F
:10058000C1F19601C84001E096398840002AF4D0B4
:100590004042704700F0004230F000400AD0C10DE8
:1005A00001F56071C0F3160042EA0151C20840072C
:1005B0001143704700200146704701F0004330B4FA
:1005C00021F0004150EA010206D00A0DA2F5607246
:1005D000C1F31301002A02DC30BC00207047440F35
:1005E00044EAC104C100E01830BC00EBC25000F086
:1005F0002CB80000002801DBC0F10040002901DB1D
:10060000C1F1004181427047202A04DB203A00FA00
:1006100002F1002070479140C2F1200320FA03F359
:10062000194390407047202A06DBCB17203A41FA45
:1006300002F043EAE07306E041FA02F3D040C2F16F
:10064000200291400843194670470029A8BF70470F
:10065000401C490008BF20F00100704710B4B0FAF8
:1006600080FC00FA0CF050EA010404BF10BC704793
:1006700049B1CCF1200421FA04F411FA0CF118BFAD
:10068000012121430843A3EB0C01CB1D4FEA00617C
:100690004FEA102042BF002010BC704700EBC3504F
:1006A00010440029A4BF10BC7047401C490008BF7B
:1006B00020F0010010BC704710B5141E73F1000447
:1006C00008DA401C41F1000192185B411A4301D144
:1006D00020F0010010BD2DE9F04D92469B4611B16E
:1006E000B1FA81F202E0B0FA80F220329046FFF7D0
:1006F0008BFF04460F4640EA0A0041EA0B015346CD
:100700005A46084313D0114653EA010019D0C8F1E4
:1007100040025046FFF708FD05460E465046594632
:100720004246FFF771FF084305D0012004E0204650
:100730003946BDE8F08D0020054346EAE0762C43BB
:1007400037430A986305E40AA0EB08000022FD0A7B
:1007500044EA47540A3002D500200146E9E7010582
:1007600010196941DDE9084500196941BDE8F04DFE
:10077000A2E70000064C074D06E0E06840F00103E8
:1007800094E8070098471034AC42F6D3FFF7B2FC68
:100790008C270008AC270008FEE7704790F821106E
:1007A0000022022905D00421816380F82020012045
:1007B000704701680B6823F00E030B6001680B683B
:1007C00023F001030B6090F84030D0F83CC00121C9
:1007D00001FA03F3CCF8043080F8211080F82020CF
:1007E0001046704710B5002490F82110022903D05C
:1007F00004218163012437E001680A6822F00E02B7
:100800000A6001680A6822F001020A60174A01685A
:10081000914201D101211CE0154A914201D11021E0
:1008200017E0144A914201D1891512E0124A91420F
:1008300001D189140DE0114A914202D14FF4803167
:1008400007E00F4A914202D14FF4801101E04FF0CE
:1008500080710C4A5160012180F82110002180F83C
:100860002010416B01B18847204610BD08000240AE
:100870001C00024030000240440002405800024088
:100880006C0002400000024070B5044600F024F9FC
:100890000546B4F1FF3F02D004480078044400F05C
:1008A0001BF9401BA042FAD370BD000038000020A5
:1008B0002DE9F84F4FF0000C00230A68002A7DD084
:1008C000DFF8DC810F2708F1040909F1040A0AF1B5
:1008D000040B012202FA0CF60A683240B2426ED1D1
:1008E000DFF8C0E14C68A4EB0E0574452BD00DDC9D
:1008F000032C34D005DC34B3012C19D0022C2FD1B9
:100900001BE0112C16D0122C2AD119E0B5F5881F46
:1009100019D006DCB5F5803F15D0B5F5801F1FD185
:1009200011E0B5F5001F0ED0B5F5041F18D10AE08F
:10093000CB6815E0CB681B1D12E0CB6808330FE0D5
:10094000CB680C330CE08B6823B1012B04D0082357
:10095000466105E0042303E00823066100E000236C
:10096000B2F5807F01D2054601E000F1040502D214
:100970004FEA8C0403E0ACF108044FEA84042E68CB
:1009800007FA04FE26EA0E0603FA04F446EA040413
:100990002C604C6814F0805F79D0434CA56945F019
:1009A0000105A561A46904F0010400942CF003047E
:1009B00004F1804404F58034A66801E06EE066E04E
:1009C0004FEA8C754FEA157507FA05FE26EA0E0EFA
:1009D000A0F18046B6F584361ED0A0F18046B6F56B
:1009E00086361BD0A0F18046B6F5883618D0A0F127
:1009F0008046B6F58A3615D0042606FA05F545EA8E
:100A00000E05A5604C6814F4803F0DD0D8F8004066
:100A10001443C8F800400CE00026EEE70126ECE79E
:100A20000226EAE70326E8E7D8F800409443C8F82E
:100A300000404C6814F4003F05D0D9F8004014433E
:100A4000C9F8004004E0D9F800409443C9F80040D8
:100A50004C6814F4801F05D0DAF800401443CAF83B
:100A6000004004E0DAF800409443CAF800404C68C3
:100A700014F4001F05D0DBF800402243CBF800201F
:100A800005E0DBF8004024EA0202CBF800200CF17C
:100A9000010C0A6832FA0CF27FF41BAFBDE8F88F44
:100AA000000401400000111000100240806808425C
:100AB00001D00120704700207047C26821EA02037C
:100AC000114043EA014101617047002A01D00161F0
:100AD0007047090401617047014880687047000051
:100AE0003800002002488168027811448160704714
:100AF0003800002010B50748016841F0100101607E
:100B0000032000F08BF8002000F006F800F026F833
:100B1000002010BD0020024070B504460D4D4FF47A
:100B20007A712878B1FBF0F00B490968B1FBF0F05D
:100B300000F0BEFB08B1012070BD102C07D20022CE
:100B40002146501E00F036F86C60002070BD012078
:100B500070BD000038000020440000200C4808B59B
:100B6000816941F001018161816901F00101009118
:100B7000C16941F08051C161C06900F080500090AE
:100B80000448416821F0E06141F00071416008BD16
:100B9000001002400000014000280ADB00F01F01A5
:100BA000012202FA01F14009800000F1E020C0F8C2
:100BB0000011704710B4184B1B68C3F30223C3F134
:100BC000070CBCF1040F01D94FF0040C1C1D072CBD
:100BD00001D2002300E0DB1E012404FA0CFCACF17E
:100BE000010C0CEA0101994004FA03F35B1E1A4060
:100BF0001143002806DB00F1E020090180F8001411
:100C000010BC704700F00F0000F1E020090180F8EF
:100C1000141D10BC704700000CED00E000F0070050
:100C2000064A11684FF6FF03194041EA002040F0E0
:100C3000FD7040F080601060704700000CED00E037
:100C40002DE9F04704460D46002C17D0DFF85C81F3
:100C5000D8F8000000F00700A84212D2D8F800002F
:100C600020F007002843C8F80000D8F8000000F082
:100C70000700A84205D00120BDE8F0870120BDE8AB
:100C8000F08720684A4E10F0020F14D010F0040FC5
:100C900003D0706840F4E0607060207810F0080FB6
:100CA00003D0706840F460507060706820F0F0010C
:100CB000A06808437060207810F0010F3AD0606897
:100CC000012806D002280BD0316811F0020F27D07E
:100CD0000AE0316811F4003F06D10120BDE8F08739
:100CE000316811F0007F18D0716821F003010843CA
:100CF0007060FFF7F1FE07467068616800F00C0055
:100D0000B0EB810F16D041F28839FFF7E5FEC01B2A
:100D1000484508D90320BDE8F0870120BDE8F087E9
:100D20000120BDE8F0877068616800F00C00B0EB4E
:100D3000810FEAD1D8F8000000F00700A8420FD9CF
:100D4000D8F8000020F007002843C8F80000D8F8C1
:100D5000000000F00700A84202D00120BDE8F087A3
:100D6000207810F0040F05D07068E16820F4E0608E
:100D700008437060207810F0080F06D07068216971
:100D800020F4605040EAC100706000F03FF87168E4
:100D9000084AC1F30311515CC8400749086007487D
:100DA0000068FFF7B9FE0020BDE8F0870020024090
:100DB0000010024074270008440000203C0000207E
:100DC00001480068704700004400002000B5FFF7AC
:100DD000F7FF04494968044AC1F30221515CC84045
:100DE00000BD0000001002408427000800B5FFF796
:100DF000E7FF04494968044AC1F3C221515CC84075
:100E000000BD0000001002408427000885B015A036
:100E1000836842680168C06803930292019104905C
:100E200014A000680090144B5968144801F00C029B
:100E3000042A11D0082A0FD101A8C1F38342805C93
:100E400011F4803F0AD05968C1F340411DF80110E8
:100E50000A4A5043B0FBF1F005B07047084905B0AD
:100E60004843704702030405060708090A0B0C0DE6
:100E70000E0F1010010200000010024000127A0054
:100E800000093D002DE9F84F0446002C0FD02078D2
:100E9000F84D10F0010F6CD0686800F00C000428C9
:100EA0000CD0686800F00C00082803D010E0012086
:100EB000BDE8F88F686810F4803F09D0286810F406
:100EC000003F56D06068002853D10120BDE8F88F5C
:100ED0006068B0F5803F15D0C8B1B0F5A02F1FD025
:100EE000286820F480302860286820F4802028605A
:100EF000606858B3FFF7F0FD0646286810F4003F1D
:100F000017D036E0286840F480302860F0E7286881
:100F100020F480302860286820F480202860E7E7EB
:100F2000286840F480202860286840F480302860D9
:100F3000DEE7FFF7D1FD801B642802D90320BDE85E
:100F4000F88F286810F4003FF3D012E0FFF7C4FDDB
:100F50000646286810F4003F0BD0FFF7BDFD801B4C
:100F6000642802D90320BDE8F88F286810F4003FF8
:100F7000F3D12078C04F10F0020F4FF0010B4FF06B
:100F8000000854D0686810F00C0F14D0686800F0A6
:100F90000C00082803D1686810F4803F0BD020694A
:100FA00078B3C7F800B0FFF797FD0646286810F041
:100FB000020F12D01DE0286810F0020F05D0206942
:100FC000012802D00120BDE8F88F2868616920F06F
:100FD000F80040EAC100286029E0FFF77DFD801B92
:100FE000022802D90320BDE8F88F286810F0020F0C
:100FF000F3D02868616920F0F80040EAC100286059
:1010000015E0FFE7C7F80080FFF766FD0646286891
:1010100010F0020F0BD0FFF75FFD801B022802D9F2
:101020000320BDE8F88F286810F0020FF3D1207874
:1010300010F0080F30D09148A169C1B1C0F800B0DC
:10104000FFF74AFD0646686A10F0020F0BD1FFF762
:1010500043FD801B022802D90320BDE8F88F686A8F
:1010600010F0020FF3D0012000F0FCFE14E0C0F8F5
:101070000080FFF731FD0646686A10F0020F0BD0C2
:10108000FFF72AFD801B022802D90320BDE8F88F54
:10109000686A10F0020FF3D1207810F0040F6FD0BF
:1010A0000026E86910F0805F08D1E86940F08050C0
:1010B000E861E86900F0805000900126DFF8C0A1E7
:1010C000DAF8000010F4807F1BD1DAF8000040F459
:1010D0008070CAF80000FFF7FFFC8146DAF80000D4
:1010E00010F4807F0DD1FFF7F7FCA0EB0900642816
:1010F00002D90320BDE8F88FDAF8000010F4807FF1
:10110000F1D0E068012816D0D0B1052821D0286A96
:1011100020F001002862286A20F004002862E068BC
:1011200041F2883A68B3FFF7D7FC8146286A10F08D
:10113000020F17D03AE0286A40F001002862EEE77B
:10114000286A20F001002862286A20F00400286242
:10115000E5E7286A40F004002862286A40F00100B0
:101160002862DCE7FFF7B8FCA0EB0900504502D984
:101170000320BDE8F88F286A10F0020FF2D015E0C6
:101180001AE0FFE7FFF7A8FC8146286A10F0020F7B
:101190000CD0FFF7A1FCA0EB0900504502D90320B9
:1011A000BDE8F88F286A10F0020FF2D1012E03D1AA
:1011B000E86920F08050E861E069E8B3696801F00F
:1011C0000C0108295ED0022810D0C7F86080FFF714
:1011D00083FC0446286810F0007F66D0FFF77CFC93
:1011E000001B022841D90320BDE8F88FC7F86080B2
:1011F000FFF772FC0646286810F0007F0BD0FFF75F
:101200006BFC801B022802D90320BDE8F88F2868F8
:1012100010F0007FF3D1206AB0F5803F05D16868F7
:10122000A16820F4003008436860616A206A0843BE
:10123000696821F4741100E037E008436860C7F87A
:1012400060B0FFF749FC0446286810F0007F2CD1FD
:10125000FFF742FC001B022802D90320BDE8F88FEB
:10126000286810F0007FF3D01FE0286810F0007F9E
:10127000B4D11AE000100240000042428004424211
:101280000070004001280DD06868226A00F48031A7
:10129000914204D1616A00F47010884205D00120A7
:1012A000BDE8F88F0120BDE8F88F0020BDE8F88F79
:1012B000401EB0F1807F01D3012070474FF0E02144
:1012C0004861044AF02010700020886107200861FE
:1012D0000020704723ED00E090F83C20012A2CD03C
:1012E000012280F83C20CA680023D1F808C022F40B
:1012F000407242EA0C02D1F804C022F4806242EA51
:101300000C02D1F800C022F4006242EA0C02D1F8CB
:1013100010C022F4805242EA0C02D1F814C022F428
:10132000005242EA0C02C96922F480421143026869
:10133000516480F83C30002070470220704730B480
:1013400090F83C20012A30D0012480F83C40022251
:1013500080F83D200268D2F804C093682CF0700C2D
:101360000D6845EA0C0CC2F804C00268A2F1804C7A
:10137000BCF5963C0CD0B2F1804F09D0A2F1804C64
:10138000BCF5806C04D0A2F1804CBCF5006C04D19B
:1013900023F0800349681943916080F83D400021A3
:1013A00080F83C1030BC0020704730BC02207047F1
:1013B00070B586B0002100910191029103910068FF
:1013C0003C4B3D4902243D4A98420FD1886940F088
:1013D000040088618869694600F0040004904FF4B5
:1013E0007060CDE90004104603944DE00325344EAF
:1013F000B0F1804F1DD0334B984248D1886940F0FE
:1014000004008861886900F004000490886940F055
:10141000080088618869694600F008000490C020CF
:10142000CDE9000410460394FFF742FACDE90054D9
:101430003CE0886940F004008861886900F004009D
:101440000490886940F0080088618869CDE90054FB
:1014500000F00800CDE9034069461046FFF728FA7E
:101460004FF44060CDE90004694630460394FFF72D
:101470001FFA1548416821F4407141F0E06141F4E0
:101480000071416006B070BDFFF712FAFAE70F4A2B
:101490009042F7D1886940F008008861886900F0BF
:1014A000080004904FF47070CDE90004694630469E
:1014B0000394E9E7002C01400010024000080140BD
:1014C000000C014000040040000001400008004002
:1014D00070B504460D4694F83C0001280AD001205E
:1014E00084F83C0042B1042A1AD0082A2DD00C2AD4
:1014F00053D13EE0022070BD2946206800F03CFD3B
:101500002068816941F0080181612068816921F0CA
:1015100004018161206881692A69114381613CE08D
:101520002946206800F05CFD2068816941F4006173
:1015300081612068816921F480618161206881690D
:101540002A6941EA0221816127E02946206800F0EA
:101550007BFD2068C16941F00801C1612068C16953
:1015600021F00401C1612068C1692A691143C16188
:1015700013E02946206800F09BFD2068C16941F412
:101580000061C1612068C16921F48061C161206886
:10159000C1692A6941EA0221C161002084F83C0046
:1015A00070BD10B50446002C03D094F83D0010B176
:1015B00007E0012010BD002084F83C00204600F028
:1015C0001FF8022084F83D00211D206800F088FCEF
:1015D000012084F8460084F83E0084F83F0084F837
:1015E000400084F8410084F8420084F8430084F805
:1015F000440084F8450084F83D00002010BD000040
:1016000008B5174A01681748914207D1816941F42A
:1016100000618161806900F4006014E0B1F1804FE5
:101620000AD0114A914210D1C16941F00201C16151
:10163000C06900F0020006E0C16941F00101C1612A
:10164000C06900F00100009008BD084A9142FBD13A
:10165000C16941F00401C161C06900F00400F2E712
:10166000002C01400010024000040040000800402F
:1016700010B50446002909D004290AD008290BD046
:1016800094F8410001280AD0012010BD94F83E00D2
:10169000F8E794F83F00F5E794F84000F2E70220FD
:1016A00089B3042933D0082934D084F841000122B9
:1016B000206800F051FC19492068884203D1426C2F
:1016C00042F4004242642068884212D0B0F1804F58
:1016D0000FD0A0F18041B1F580610AD0A0F1804126
:1016E000B1F5006105D0016841F001010160002001
:1016F00010BD816801F007010629F8D0016841F0AA
:1017000001010160F3E7FFE784F83E00CFE784F8CA
:101710003F00CCE784F84000C9E70000002C0140FE
:1017200070477047F8B5044622681068D16853695D
:1017300000F00F0CBCF1000F0AD110F0200F07D001
:1017400011F0200F04D02046BDE8F84000F004BDA1
:101750000025BCF1000F6DD003F0010C01F4907670
:101760005CEA060666D010F0010F06D011F4807F07
:1017700003D0226C42F00102226410F0040F06D064
:1017800013F0010F03D0226C42F00202226410F029
:10179000020F06D013F0010F03D0226C42F00402B6
:1017A000226410F0080F08D001F0200252EA0C0267
:1017B00003D0226C42F008022264226C002A2FD04F
:1017C00010F0200F05D011F0200F02D0204600F0BD
:1017D000C3FC20684069C0F38010216C11F0080F31
:1017E00000D110B3204600F092FC2068416911F04E
:1017F000400F16D0416921F040014161A06B60B1FA
:1018000047494163A06BFEF7EDFF002808D0A06BAD
:10181000416B01B0BDE8F04008472046FFF781FF6B
:10182000F8BD2046FFF77DFFF8BD2046FFF779FFA2
:101830002564F8BD236B012B5BD110F0100F58D03D
:1018400011F0100F55D010685068009050694FF09B
:10185000200310F0400F2ED0A16B0868406880B2C2
:101860000028E6D0B4F82CC08445E2D9E085886928
:10187000202818D0D06820F48070D060206841699A
:1018800021F0010141612068416921F0400141617D
:1018900084F83E3025632068C16821F01001C160E2
:1018A000A06BFEF77BFFA08DE18D401A81B2204630
:1018B000FFF736FFF8BDA08DE18D401A81B2E08DB3
:1018C0000028F7D00029F5D0D06820F49070D060BF
:1018D0002068426922F00102426184F83E302563AB
:1018E0002068C26822F01002C2602046FFF718FF8D
:1018F000F8BD10F0800F07D011F0800F04D0204603
:10190000BDE8F84000F007BD10F0400FF0D011F036
:10191000400FEDD02046BDE8F84000F010BC0000BC
:10192000FF20000870B50446002C04D094F83D0058
:10193000002510B106E0012070BD84F83C5020461F
:1019400000F022F8242084F83D002068C16821F4CA
:101950000051C160204600F05FFC2068016921F45D
:10196000904101612068416921F02A0141612068AC
:10197000C16841F40051C1602564202084F83D0015
:1019800084F83E00002070BD30B585B0002400947E
:101990000194029403940068184988422BD1184896
:1019A000C16941F40031C161C16901F400310491A0
:1019B000816941F0040181618069124D00F00400E9
:1019C00004900420009002200190032003906946B7
:1019D0002846FEF76DFF0820CDE900046946284639
:1019E0000294FEF765FF002203212620FFF7E2F8AC
:1019F0002620FFF7D1F805B030BD000000440040BC
:101A0000001002400008014090F83E30202B01D029
:101A10000220704759B152B190F83C30012B08D0E8
:101A2000012380F83C300023036300F059BC0120FF
:101A300070470220704700002DE9F05F00684F49B1
:101A4000884276D14E484F4DC41E0678206B4FF029
:101A5000010B002110B101281CD005E0607853284B
:101A600002D1A07855280BD021636078A0706670F1
:101A7000BDE8F05F4348012241494438FFF7C4BF45
:101A80005520C4F830B028705320687002202070B0
:101A9000A820606320782E54401CC0B220700B2810
:101AA00003D2606B30446063DFE7DED12163606B9B
:101AB00088464FEAE07100EB116121F0FF01A0EBD5
:101AC0000100DFF8C4A0314FB042CED14FF4005135
:101AD0002F48FEF7F2FFC4F804806888FEF73CFD4B
:101AE0006FF00E01FEF70AFC5146FEF797FB8146A8
:101AF000A888FEF731FD6FF00E01FEF7FFFB51469F
:101B0000FEF78CFB8046E888FEF726FD6FF00E019D
:101B1000FEF7F4FB5146FEF781FB05464946504669
:101B2000FEF768FD06D838464946FEF774FBE061CB
:101B300002E021E0C4F81C9050464146FEF75AFDF1
:101B400005D838464146FEF766FB206201E0C4F83E
:101B5000208050462946FEF74DFD05D838462946D7
:101B6000FEF759FB606200E06562E06A00289BD1E5
:101B7000606AC4E90A0B78E7BDE8F09F00440040C2
:101B800003000020AC010020000034430000B443F7
:101B9000001001407047FEE770B586B0002424486D
:101BA0000094019402940394816941F010018161D1
:101BB000816901F010010491816941F02001816186
:101BC000816901F020010491816941F00401816182
:101BD000816901F004010491816941F0080181618A
:101BE0008069144E00F008004FF400550490002264
:101BF00029463046FEF769FF0220CDE902400095F4
:101C00000125694601953046FEF752FE4FF2380035
:101C10008DE8310069460848FEF74AFEE8038DE882
:101C2000310069460548FEF743FE06B070BD00006E
:101C30000010024000100140000C0140000801406B
:101C400010B592B000240F941C2168461094FEF742
:101C500082FA202107A8FEF77EFA22482049016077
:101C60004721C0E9011440F2F311C0E903144461B3
:101C70008461FFF796FC0F940FA91A481094FFF7A0
:101C80005EFB6020CDE90004029403940494059463
:101C90000022694613480694FFF71AFC042269469D
:101CA0001048FFF715FC082269460E48FFF710FCA4
:101CB0000C2269460B48FFF70BFC07940894099423
:101CC0004FF400500A94CDE90B4007A905480E9443
:101CD000FFF702FB0348FFF76BFB12B010BD0000DB
:101CE000002C01404800002010B58AB00024079461
:101CF0001C2168460894FEF72EFA19484FF08041DF
:101D000001604721C0E9011440F2F311C0E9031456
:101D10008461FFF746FC079407A911480894FFF770
:101D20000EFB6020CDE900040294002269460C48B5
:101D30000494FFF7CDFB042269460948FFF7C8FB6E
:101D4000082269460648FFF7C3FB0C22694604488F
:101D5000FFF7BEFB0248FFF72BFB0AB010BD0000E7
:101D60009000002010B58AB0002407941C2168461A
:101D70000894FEF7F0F91948174901604721C0E9B6
:101D8000011440F2E731C0E903148461FFF709FC54
:101D9000079407A911480894FFF7D1FA6020CDE90C
:101DA00000040294002269460C480494FFF790FB5B
:101DB000042269460948FFF78BFB08226946074859
:101DC000FFF786FB0C2269460448FFF781FB0348B6
:101DD000FFF7EEFA0AB010BD00040040D800002062
:101DE00010B58AB0002407941C2168460894FEF7B9
:101DF000B2F91948174901604721C0E9011440F2BE
:101E0000E731C0E903148461FFF7CBFB079407A90E
:101E100011480894FFF793FA6020CDE9000402947A
:101E2000002269460C480494FFF752FB04226946DD
:101E30000948FFF74DFB082269460748FFF748FBB2
:101E40000C2269460448FFF743FB0348FFF7B0FA4A
:101E50000AB010BD0008004020010020FEE77047D6
:101E60007047000081B007494FF4FA520968B1FB8E
:101E7000F2F14843009000BF0098411E0091FAD251
:101E800001B07047440000207047FEF72BBE30B50C
:101E90008FB028216846FEF75EF914210AA8FEF7E4
:101EA0005AF901210804CDE900100024029402250A
:101EB0000491CDE907504FF4E01009906846FEF711
:101EC000E1FF0F20CDE90A056802CDE90C400221AF
:101ED0000AA80E94FEF7B4FE0FB030BD70470000A4
:101EE00030B40268194B1A4CDFF868C0984206D02B
:101EF000B0F1804F03D0A04201D0604503D122F061
:101F000070024D682A43984206D0B0F1804F03D04A
:101F1000A04201D0604505D122F44072D1F80CC036
:101F20004CEA0202D1F814C022F0800242EA0C020C
:101F300002608A68C2620A688262984201D10969B5
:101F400001630121416130BC70470000002C014059
:101F5000000400400008004001F01F0101238B40F5
:101F6000D0F820C02CEA03030362036A02FA01F1ED
:101F7000194301627047000010B4026A22F00102A6
:101F80000262036A4268D0F818C02CF0700C2CF082
:101F9000030C0C6844EA0C0C23F002038C68234306
:101FA0000E4CA04206D123F00803CC6844EA030398
:101FB00023F0040309D122F4807222F400724C69E8
:101FC00044EA02028C6944EA02024260C0F818C086
:101FD00049684163036210BC70470000002C014057
:101FE00010B4026A22F010020262036A4268D0F85A
:101FF00018C02CF4E04C2CF4407C0C684CEA042C07
:1020000023F020038C6843EA04130E4CA04206D14F
:1020100023F08003CC6843EA041323F0400309D182
:1020200022F4806222F400624C6942EA84028C69E4
:1020300042EA84024260C0F818C0496881630362C2
:1020400010BC7047002C014010B4026A22F4807268
:102050000262036A4268D0F81CC02CF0700C2CF0AD
:10206000030C0C6844EA0C0C23F400738C6843EAFC
:1020700004230E4CA04206D123F40063CC6843EA4B
:10208000042323F4806309D122F4805222F4005205
:102090004C6942EA04128C6942EA04124260C0F8B8
:1020A0001CC04968C163036210BC7047002C01402A
:1020B00010B4026A22F480520262036A4268D0F8C5
:1020C0001CC02CF4E04C2CF4407C0C684CEA042C32
:1020D00023F400538C6843EA0433A0F18044B4F540
:1020E000963404D122F480424C6942EA8412426060
:1020F000C0F81CC049680164036210BC704710B589
:10210000406A0021C185C184FFF70BFB10BD016847
:10211000CA6822F49072CA6001684A6922F001021A
:102120004A61016B012904D10168CA6822F01002DA
:10213000CA60202180F83E1000210163704710B56D
:102140000168CA6822F04002CA60202180F83D1070
:10215000FFF720FD002010BD08B590F83E102229A1
:1021600001D0022008BD8268B2F5805F01D101690B
:1021700029B1816AB2F5805F1DD052B10BE0816A4E
:1021800002685268C2F308020A80816A891C81626F
:1021900009E002697AB10268526802F07F020A70AF
:1021A000816A491C8162C18D491E0904090CC185DF
:1021B00005D0002008BD026852680A70F0E7016887
:1021C000CA6822F02002CA600168CA6822F48072DC
:1021D000CA6001684A6922F001024A61202180F840
:1021E0003E10016B012903D0FFF726FC002008BD3B
:1021F000002101630168CA6822F01002CA60016808
:102200000A6812F0100F02D00A6849680091818DA7
:10221000FFF786FAEAE7000070B504462068016916
:10222000E26821F44051114301612169A06808432B
:10223000616901432068C26822F4037222F4A0524B
:102240001143C16020684169A26921F440711143C2
:1022500041612068A0F18041B1F59C313AD0FEF790
:10226000B5FD00EBC00101EB001061681B4A89005D
:10227000B0FBF1F3A2FB0353B0FBF1FC5B096FF081
:1022800018056B430CEB83034FF0320C0CEB03137C
:10229000A2FB03535B0903F0F005B0FBF1F3A2FBD3
:1022A00003635B0905EB0313B0FBF1F5B0FBF1F041
:1022B000A2FB001040096FF01801484305EB8000B5
:1022C0000CEB0010A2FB00102168C0F3431018446F
:1022D000886070BDFEF78AFDC3E700001F85EB51E3
:1022E00081628285C28500210164222280F83E201D
:1022F00080F83C100168CA6842F48072CA600168C4
:102300004A6942F001024A610068C16841F0200157
:10231000C1600020704790F83D10212901D00220B3
:1023200070478168B1F5805F01D1016961B1016ACF
:102330004A1C0262026809785160C18C491E090476
:10234000090CC1840AD013E0016A02680988C1F34C
:1023500008015160016A891C0162EEE70168CA68E0
:1023600022F08002CA600068C16841F04001C1608B
:10237000002070470148FFF7D5B900006801002030
:10238000FEE702E008C8121F08C1002AFAD1704710
:102390007047002001E001C1121F002AFBD17047E5
:1023A00086B04FF07E55FEF7A5FBFFF770FDFFF7F7
:1023B000F3FBFFF715FDFFF797FCFFF7D3FCDD48B4
:1023C000DB494FF0000801604FF4E131C0E901182A
:1023D0000C22C0F80C80C0E90482C0F81880C0F854
:1023E0001C80FFF79FFAFFF72BFC0122D249D1484E
:1023F000FFF70AFB0021D148FFF73AF90421CF4843
:10240000FFF736F90821CD48FFF732F90C21CB4808
:10241000FFF72EF9C94800214830FFF729F9C748CE
:1024200004214830FFF724F9C44808214830FFF759
:102430001FF9C2480C214830FFF71AF9C04C4FF47D
:1024400080512046FEF732FB00B9BE4D4FF40051DB
:102450002046FEF72BFB00B9BB4D4FF480412046D0
:10246000FEF724FB00B9B94D4FF400463146204633
:10247000FEF71CFB00B9B64D20212046FEF716FBE7
:1024800008B94FF07D5510212046FEF70FFB00B92B
:10249000B04D08212046FEF709FB00B9AE4D31468C
:1024A000AE48FEF703FB00B9AD4DDFF89092A24CA9
:1024B00009F1480AE41E0A20FEF7E6F96068642183
:1024C00090FBF1F201FB120131B91E2804DD4FF43B
:1024D0000051A448FEF7F1FAE06A00287ED0D4E962
:1024E0000901FDF795FEFEF73CF80646E069FEF7A8
:1024F00038F88346206AFEF734F8074616F1B40F21
:1025000001DA06F5B476B42E01DDA6F5B476002E18
:1025100001DB304600E070420A2800DA00265FEA5C
:102520000B0001D5CBF100000A2801DA4FF0000BB7
:10253000002F01DB384600E078420A2800DA002745
:10254000CBF10000FDF7FFFF8749FDF799FE294613
:10255000FDF764FE03907842FDF7F5FF8249FDF731
:102560008FFE2946FDF75AFE83463046FDF7EBFF06
:102570007D49FDF785FE2946FDF750FEFEF70AF876
:102580004FF06632794BFDF76CFF06460F4602911D
:1025900059460398FDF7EAFDFDF7FCFF32463B463E
:1025A000CDE90001FDF757FFFEF707F8DDE90271FD
:1025B00004905846FDF72CFEFDF7ECFF83463246AB
:1025C0003B460591FDF747FFFDF7F7FF0390DDE977
:1025D00000013246029BFDF79DFE00E03DE0FDF765
:1025E000ECFF074632465846029B0599FDF792FEDE
:1025F000FDF7E3FFDFF878B1064659460398FDF78B
:102600000DFE0190A068FDF79EFF00900199FDF777
:10261000ADFDFDF7A6FFE06059463846FDF7FEFD2B
:1026200001460098FDF7A2FDFDF79BFF206159468A
:102630000498FDF7F3FD01460098FDF797FDFDF7BF
:1026400090FF606159463046FDF7E8FD014600986D
:10265000FDF78CFDFDF785FFA0616068411C61609E
:10266000192804DDA068E06020616061A061D4E900
:102670000210401A002805D008DDD9F80030586350
:10268000404609E0D9F80030586305E0D9F8006009
:10269000C6F83480C0F10000D9F8002090632069AA
:1026A000A0EB0100002805D008DDD9F80030D86380
:1026B000404609E0D9F80030D86305E0D9F8006059
:1026C000C6F83C80C0F10000D9F8002010646069B1
:1026D000A0EB0100002805D008DDDAF800305863CF
:1026E000404609E0DAF80030586305E0DAF80060A7
:1026F000C6F83480C0F10000DAF800209063A069C9
:10270000A0EB0100002805D008DDDAF80020D06336
:10271000404609E0DAF80020D06305E0DAF800303E
:10272000C3F83C80C0F10000DAF800100864C2E68B
:102730000044004068010020030000204800002001
:10274000000C01403333733F6666663F9A99593FE8
:10275000CDCC4C3F3333333F6666263F0008014003
:102760009A99193F001001400000B4426666D63FB6
:1027700000004844000000000000000001020304C3
:10278000060708090000000001020304AC27000846
:10279000000000204800000082230008F427000801
:1027A000480000209005000092230008000000006F
:1027B00000000000DC050000DC050000DC05000076
:1027C000DC050000DC050000000000000000000047
:1027D00000000000000000000000000000000000F9
:1027E00000000000010000001000000000000000D8
:0427F0000024F400CD
:04000005080000ED02
:00000001FF
